S01500005356204D4F544F5220284244292E73726563BE
S11300000C9434000C9446000C9446000C94460066
S11300100C9446000C9446000C9446000C94460044
S11300200C9446000C9446000C9446000C94460034
S11300300C9446000C9446000C9446000C94460024
S11300400C9446000C9446000C9446000C94460014
S11300500C9446000C9446000C9446000C94460004
S11300600C9446000C94460011241FBECFEFD8E038
S1130070DEBFCDBF21E0A0E0B1E001C01D92A13000
S1130080B207E1F70E9465000C94C7000C940000CD
S1130090E0E8F0E0808182608083A1E8B0E08C91A8
S11300A088618C938C9182608C9380E49CE990931A
S11300B087008093860080818068808384B1866015
S11300C084B98AB180668AB908950E9448008FEF86
S11300D084B98AB915B81BB80E94AD000E94C0004B
S11300E080930001833411F128F4813449F082347F
S11300F091F0F2CF853449F120F1863451F1ECCFFF
S113010088E998E0909389008093880090938B000D
S113011080938A00E1CF88ED9EE0909389008093DC
S1130120880090938B0080938A00D6CF88EB9BE065
S1130130909389008093880090938B0080938A0029
S1130140CBCF88E987BD88BDC7CF88ED87BD88BD83
S1130150C3CF88EB87BD88BDBFCFE0ECF0E08081E2
S1130160826080831092C50080E18093C400E1EC3A
S1130170F0E080818061808380818860808308953D
S11301808091C0008823E4F78091C6000895F89414
S1050190FFCF9B
S9030000FC
