S01500004443204D4F544F5220284244292E73726563E0
S11300000C9434000C9446000C9446000C94460066
S11300100C9446000C9446000C9446000C94460044
S11300200C9446000C9446000C9446000C94460034
S11300300C9446000C9446000C9446000C94460024
S11300400C9446000C9446000C9446000C94460014
S11300500C9446000C9446000C9446000C94460004
S11300600C9446000C94460011241FBECFEFD8E038
S1130070DEBFCDBF21E0A0E0B1E001C01D92A13000
S1130080B207E1F70E9491000C94AD000C940000BB
S1130090E0E8F0E0808183608083E1E8F0E0808143
S11300A0806A808380818460808384B1876084B91E
S11300B08AB1806E8AB980E090E008950E94480079
S11300C08FEF84B98AB915B81BB80E9493000E94B7
S11300D0A60080930001823391F028F48033E1F08C
S11300E0813331F0F2CF833389F0843391F0EDCF53
S11300F083E090E09093890080938800E6CF85E0C8
S113010090E090938B0080938A00DFCF80E688BDD7
S1130110DCCF80EA87BDD9CFE3EBF0E01082108218
S1130120D4CF0E945E00E0ECF0E0808182608083A6
S11301301092C50080E18093C400E1ECF0E080817E
S11301408061808380818860808308958091C0006D
S11101508823E4F78091C6000895F894FFCF49
S9030000FC
