:100000000C9434000C9446000C9446000C9446006A
:100010000C9446000C9446000C9446000C94460048
:100020000C9446000C9446000C9446000C94460038
:100030000C9446000C9446000C9446000C94460028
:100040000C9446000C9446000C9446000C94460018
:100050000C9446000C9446000C9446000C94460008
:100060000C9446000C94460011241FBECFEFD8E03C
:10007000DEBFCDBF21E0A0E0B1E001C01D92A23003
:10008000B207E1F70E9448000C94B1000C94000004
:1000900014B81AB8E0EBF0E080818360808380813F
:1000A000806A8083E1EBF0E08081846080838AB1A4
:1000B00088608AB984B1886084B984B5836084BD5E
:1000C00084B5806A84BD85B5846085BD8AB180624F
:1000D0008AB98AB180648AB90E9497000E94AA00F6
:1000E000809300018A3011F415B81BB8809100018B
:1000F000813721F488EC8093B300EECF873721F469
:1001000088EC8093B400E8CF853619F488EC87BD7D
:10011000E3CF823719F488EC88BDDECF8337E1F670
:100120001092B4001092B30018BC17BCD5CFE0EC0D
:10013000F0E08081826080831092C50080E180932E
:10014000C400E1ECF0E08081806180838081886080
:10015000808308958091C0008823E4F78091C600D1
:060160000895F894FFCFA2
:00000001FF
