:100000000C9434000C9446000C9446000C9446006A
:100010000C9446000C9446000C9446000C94460048
:100020000C9446000C9446000C9446000C94460038
:100030000C9446000C9446000C9446000C94460028
:100040000C9446000C9446000C9446000C94460018
:100050000C9446000C9446000C9446000C94460008
:100060000C9446000C94460011241FBECFEFD8E03C
:10007000DEBFCDBF21E0A0E0B1E001C01D92A23003
:10008000B207E1F70E946D000C946F000C94000021
:100090008FEF84B91AB815B880EC8BB98091010143
:1000A00085B94E990AC080910001811106C083E094
:1000B0008093010181E0809300014E9909C08091F5
:1000C0000001813029F485E0809301011092000144
:1000D0004F99E4CF10920101E1CF0E944800F894BB
:0200E000FFCF50
:00000001FF
