:100000000C9434000C9446000C9446000C9446006A
:100010000C9446000C9446000C9446000C94460048
:100020000C9446000C9446000C9446000C94460038
:100030000C9446000C9446000C9446000C94460028
:100040000C9446000C9446000C9446000C94460018
:100050000C9446000C9446000C9446000C94460008
:100060000C9446000C94460011241FBECFEFD8E03C
:10007000DEBFCDBF21E0A0E0B1E001C01D92A13004
:10008000B207E1F70E9484000C9486000C940000F3
:100090008FEF84B91AB815B880EE8BB9E0E8F0E0BC
:1000A0008081836080838081806A8083E1E8F0E0E2
:1000B00080818260808384B1876084B980910001EF
:1000C00085B94F9909C088EC90E09093890080939E
:1000D000880083E0809300014E9909C088EC90E08D
:1000E00090938B0080938A0085E0809300014D9966
:1000F000E5CF1092000110928900109288001092B2
:100100008B0010928A00DACF0E944800F894FFCF4B
:00000001FF
