S01500004443204D4F544F5220284250292E73726563D4
S11300000C9434000C9446000C9446000C94460066
S11300100C9446000C9446000C9446000C94460044
S11300200C9446000C9446000C9446000C94460034
S11300300C9446000C9446000C9446000C94460024
S11300400C9446000C9446000C9446000C94460014
S11300500C9446000C9446000C9446000C94460004
S11300600C9446000C94460011241FBECFEFD8E038
S1130070DEBFCDBF21E0A0E0B1E001C01D92A230FF
S1130080B207E1F70E9481000C9483000C940000F5
S11300908FEF84B98AB915B81BB8E0EBF0E0808122
S11300A0836080838081806A8083E1EBF0E08081DB
S11300B08460808384B1886084B98AB188608AB995
S11300C08091000185B9809101018BB94D9906C0D9
S11300D086E98093B30088E0809300014E9906C0BE
S11300E086E98093B40088E0809301014F99E8CFBA
S11300F010920001109201011092B3001092B4000A
S10D0100DFCF0E944800F894FFCFFF
S9030000FC
